:03000000020800F3
:0C080000787FE4F6D8FD758137020847C8
:100910000630380E010681000B084C6576656C3A8E
:1009200048696768000A134C6576656C3A4C6F77C6
:1009300000091D4D6F746F723A4F6E000A264D6F9D
:08094000746F723A4F66660005
:100949007F327E001209597FC11209937F327E00DE
:10095900E4FDFCC3ED9FEC9E5015E4FBFA0BBB00D4
:10096900010ABA04F8BBE2F50DBD00010C80E422CE
:100993008F90C2B0C2B1D2B67F017E00120959C294
:0209A300B6227A
:08097900AF822FF8E6FF7E00BB
:100981008F90D2B0C2B1D2B67F017E00120959C296
:02099100B6228C
:10088C00E4F536F53774302537F8E6FF600D1209BC
:10089C00520537E53770EE053680EA208130C28785
:1008AC00E4F583F5827408120979A3E582640B459B
:1008BC008370F2120949120959E4F583F582742602
:1008CC00120979A3E582640A458370F28032D287DB
:1008DC00E4F583F582AF82741312097BA3E582647D
:1008EC000A458370F0120949120959E4F583F5821F
:1008FC00AF82741D12097BA3E5826409458370F0F5
:04090C001209552255
:10080C0002088CE493A3F8E493A34003F68001F26E
:10081C0008DFF48029E493A3F85407240CC8C333ED
:10082C00C4540F4420C8834004F456800146F6DFBC
:10083C00E4800B0102040810204080900910E47E33
:10084C00019360BCA3FF543F30E509541FFEE493B1
:10085C00A360010ECF54C025E060A840B8E493A378
:10086C00FAE493A3F8E493A3C8C582C8CAC583CAA3
:10087C00F0A3C8C582C8CAC583CADFE9DEE780BE5B
:0109480000AE
:00000001FF
